:1000000014C02EC02DC02CC018C12AC029C028C0C1
:1000100027C026C025C024C023C022C021C020C0C4
:100020001FC01EC01DC01CC01BC011241FBECFE5B9
:10003000D1E0DEBFCDBF11E0A0E6B0E0E4EFFEE02E
:1000400002C005900D92A031B107D9F721E0A0E1DF
:10005000B1E001C01D92AD33B207E1F751D348C7FB
:10006000CFCFE7ECF0E03197F1F700C0000098B394
:100070009F70282F207F922B98BBC198C298C39A5B
:10008000F2E0FA95F1F700C0C39895E39A95F1F77D
:10009000000098B39F708295807F892B88BBC39A9C
:1000A000E2E0EA95F1F700C0C3980895E7ECF0E0CC
:1000B0003197F1F700C0000098B39F70282F207F80
:1000C000922B98BBC19AC298C39AF2E0FA95F1F7C5
:1000D00000C0C39895E39A95F1F7000098B39F701C
:1000E0008295807F892B88BBC39AE2E0EA95F1F77D
:1000F00000C0C39808958FEF87BBC3988FE99FE036
:100100000197F1F700C0000083E3ABDF87EC90E0DC
:100110000197F1F700C0000082E3A3DF87EC90E0D5
:100120000197F1F700C0000088E29BDF87EC90E0C8
:100130000197F1F700C000008EE093DF87EC90E0BC
:100140000197F1F700C0000081E08BDF8FE99FE0AD
:100150000197F1F700C0000086E083DF87EC90E0B4
:100160000197F1F700C000000895CF93DF9300D00E
:1001700000D0CDB7DEB790E8998390EC9A8394E9EC
:100180009B8394ED9C83FE01E60FF11D81509081CD
:10019000890F67DF87EC90E00197F1F700C000005E
:1001A0000F900F900F900F90DF91CF9108950F93C4
:1001B0001F93CF938C01FC018081882349F0C0E01C
:1001C00075DFCF5FF801EC0FF11D80818111F8CF51
:1001D0008CE047DFCF911F910F91089581E041DFBF
:1001E0008FE99FE00197F1F700C00000089580E4D7
:1001F00038DF84E05BDF8EE059DF8EE057DF8EE092
:1002000055DF8FE153DF80E051DF84E04FDF80E096
:100210004DDF089581B38C7F81BB8FEF87BB83E077
:1002200082BB089589B7806489BF1FBC8CE08EBDF6
:1002300082E19AE79BBD8ABD08951F920F920FB687
:100240000F9211242F933F938F939F9380913C01A2
:100250008F5F8C3319F080933C0107C010923C01F2
:10026000809137018F5F80933701809137018C3304
:1002700039F410923701809177008F5F8093770077
:1002800080917700883111F41092770090912701C6
:1002900080916D0098131BC030911C012091770054
:1002A000321315C030911A012091370132130FC05B
:1002B00030912A0120912801321309C080916E00EB
:1002C00080932A0180912601981321C059C09091F2
:1002D0002601891316C09091180180917700981318
:1002E00010C0909116018091370198130AC0909127
:1002F000290180912801981304C080916E00809399
:10030000290190912A0180916E00981313C0809169
:1003100014018F5F809314018C3339F4109214010F
:1003200080916000809312010BC080911001809336
:10033000120106C0109214018091100180931201E5
:100340009091290180916E00981313C08091130140
:100350008F5F809313018C3339F4109213018091D5
:1003600060008093110113C08091100180931101EE
:100370000EC010921301809110018093110107C0EB
:1003800090911801809177009813C1CFAACF9F91C7
:100390008F913F912F910F900FBE0F901F90189546
:1003A000CF93DF9380913C013AE0632F95D5C82F1E
:1003B000292F90933B0180933A01809137018CD58E
:1003C000482FA92F909336018093350180917700B3
:1003D00083D5909332018093310130E028583F4F0C
:1003E000F901208120933901D0E0C858DF4F2881DE
:1003F00020933801B0E0A858BF4F2C9120933401CE
:10040000E42FF0E0E858FF4F208120933301E92FDB
:10041000F0E0E858FF4F908190933001E82FF0E032
:10042000E858FF4F808180932F0161E081E09DDEDD
:1004300080912F013BDE8091300138DE82E890E030
:10044000B6DE8091330132DE809134012FDE82E806
:1004500090E0ADDE8091380129DE8091390126DE01
:1004600061E08AE082DE84E890E0A1DEDF91CF9156
:10047000089580912E012AE0622F2ED5E82FF0E01A
:10048000E858FF4F808180937600E92FF0E0E8582C
:10049000FF4F80818093750080912D011DD5E82F3D
:1004A000F0E0E858FF4F808180937400E92FF0E07E
:1004B000E858FF4F80818093730061E081E055DE52
:1004C00080917600F3DD80917500F0DD82E890E0A8
:1004D0006EDE80917400EADD80917300E7DD8CE8C8
:1004E00090E065DE8AEE90E062DE62E080E13DDE73
:1004F00080E0DCDD089580912C012AE0622FECD4AD
:10050000E82FF0E0E858FF4F808180937200E92FD8
:10051000F0E0E858FF4F80818093710080912B01BB
:10052000DBD4E82FF0E0E858FF4F80818093700023
:10053000E92FF0E0E858FF4F808180936F0061E081
:1005400081E013DE80917200B1DD80917100AEDD3B
:1005500082E890E02CDE80917000A8DD80916F0031
:10056000A5DD84E990E023DE8AEE90E020DE62E003
:1005700080E1FBDD80E09ADD0895CF9390912A0120
:1005800080916E00981355C029DE809B48C09091E1
:10059000120180911001981342C090912A0180911C
:1005A0006E0098133CC0C1E088B38C2788BB6C2FC9
:1005B00084E0DBDD8CE990E0FADD62E08C2FD5DDB4
:1005C00084EA90E0F4DD809909C08091280180934D
:1005D0002A0180912501809327010AC0819908C0D2
:1005E0008091280180932A01809125018093270121
:1005F0002FEF80E792E0215080409040E1F700C06B
:100600000000809B0CC09091120180911001981302
:1006100006C090912A0180916E00981729F2DEDDC4
:100620008091280180932A018091250180932701E0
:10063000C0989091290180916E00981354C0CEDD2E
:10064000809B48C09091110180911001981342C085
:100650009091290180916E0098133CC0C1E088B34D
:100660008C2788BB6C2F84E080DD8CE990E09FDDD7
:1006700062E08C2F7ADD84EA90E099DD809909C0F0
:100680008091280180932901809125018093260182
:100690000AC0819908C08091280180932901809126
:1006A0002501809326012FEF80E792E021508040C2
:1006B0009040E1F700C00000809B0CC090911101B8
:1006C00080911001981306C09091290180916E00CD
:1006D000981729F283DD8091280180932901809168
:1006E000250180932601C0982FEF82E597E02150E5
:1006F00080409040E1F700C0000070DDCF91089588
:1007000089DD90DDF8DC73DD78941AE080912301B7
:1007100080932401809B6DC030DF80913C01612F6C
:10072000DBD3282F492F90933B0180933A0180918E
:100730003701D2D3E82FA92F90933601809335014A
:1007400080917700C9D3909332018093310150E0BA
:1007500048585F4FEA0138813093390130E028581A
:100760003F4FE901288120933801B0E0A858BF4FDE
:100770002C9120933401F0E0E858FF4F2081209322
:100780003301E92FF0E0E858FF4F9081909330015A
:10079000E82FF0E0E858FF4F808180932F0161E05F
:1007A00081E0E3DC80912F0181DC809130017EDCEF
:1007B00082E890E0FCDC8091330178DC80913401A8
:1007C00075DC82E890E0F3DC809138016FDC809189
:1007D00039016CDC62E081E0C8DC82EB90E0E7DCB0
:1007E000809B07C09091240180912301981709F400
:1007F00093CF80912A0190912801891361C3909130
:10080000290189135DC3EADC61E081E0AEDC8CEB99
:1008100090E0CDDC62E081E0A8DC87E890E0C7DC16
:10082000DFEF24E38CE0D15020408040E1F700C0AE
:10083000000080B38330E9F38199E8C080916C00B7
:1008400080932401809121018093220189B78F7BBD
:1008500089BF9FEFC2E5D7E09150C040D040E1F79B
:1008600000C00000BBDC9091240180916C009817BF
:1008700009F4C0C0C7C094DD62E081E076DC8CEC96
:1008800090E095DC80B38330E9F381990BC08091CF
:100890007700873119F41092770008C08F5F80933A
:1008A000770004C080916900809322012FEF82E5D8
:1008B00097E0215080409040E1F700C00000909107
:1008C0002201809121019817B1F288DC90912201D8
:1008D0008091690098132AC063DD62E084E045DC02
:1008E0008CEC90E064DC80B38330E9F381990BC039
:1008F000809137018B3319F41092370108C08F5F54
:100900008093370104C08091680080932201CFEF6B
:10091000D2E527E0C150D0402040E1F700C0000000
:1009200090912201809169009817B1F257DC909163
:1009300022018091680098132AC032DD62E087E0CE
:1009400014DC8CEC90E033DC80B38330E9F38199E4
:100950000BC080913C018B3319F410923C0108C00C
:100960008F5F80933C0104C08091670080932201D7
:100970008FEF92E5C7E081509040C040E1F700C0A2
:10098000000090912201809168009817B1F226DC56
:1009900015C006DD62E0812FE8DB8CEC90E007DC1F
:1009A00080B38330E9F3819905C08091230180935E
:1009B000240104C0809121018093220190912201A1
:1009C00080916700981306C09091240180916C007B
:1009D0009817F9F2DFEF22E587E0D1502040804000
:1009E000E1F700C00000FADB9091240180916C00D7
:1009F000981308C09091220180912101981709F461
:100A00003ACF63CF89B7806489BF5BC2E7DB61E01F
:100A100081E0ABDB8CEB90E0CADB62E081E0A5DB40
:100A20008FEC90E0C4DB9FEFC2E5D7E09150C0406F
:100A3000D040E1F700C0000080B38330E9F3819932
:100A400011C12FEF82E597E0215080409040E1F7FF
:100A500000C00000C3DB80916B0080932401809173
:100A60001F0180932001F6C004DD62E081E07DDBA0
:100A70008CEC90E09CDB80B38330E9F381990FC06C
:100A800080912E01873119F410922E0103C08F5FDF
:100A900080932E0180912E0180931B0104C08091D0
:100AA000660080932001CFEFD2E527E0C150D0400F
:100AB0002040E1F700C000009091200180911F01CB
:100AC000981791F28BDB909120018091660098132A
:100AD0002EC0CFDC62E084E048DB8CEC90E067DB8A
:100AE00080B38330E9F381990FC080912D018B335E
:100AF00019F410922D0103C08F5F80932D01809116
:100B00002D018093190104C080916500809320011C
:100B10008FEF92E5C7E081509040C040E1F700C000
:100B200000009091200180916600981791F256DBA9
:100B30009091200180916500981343C09091240109
:100B400080916B0098133DC094DC62E087E00DDB80
:100B50008CEC90E02CDB80B38330E9F3819918C0F2
:100B6000809123018093240180916D00809327015F
:100B700080911B0180931C018091190180931A01BF
:100B80002DDB61E084E0F1DA87ED90E010DB04C05A
:100B90008091640080932001DFEF22E587E0D1504F
:100BA00020408040E1F700C000009091200180913A
:100BB0006500981306C09091240180916B009817EE
:100BC00019F20CDB909120018091640098133BC0D6
:100BD0009091240180916B00981335C04ADC62E04B
:100BE0008EE0C3DA8CEC90E0E2DA80B38330E9F394
:100BF000819910C080912301809324018091250167
:100C000080932701EBDA61E084E0AFDA83EE90E0D5
:100C1000CEDA04C080911F01809320019FEFC2E5CE
:100C2000D7E09150C040D040E1F700C00000909163
:100C3000200180916400981306C090912401809156
:100C40006B00981759F2CADA9091240180916B00D9
:100C5000981337C19091200180911F01981709F4D2
:100C600003CF30CF80992DC1B9DA61E081E07DDA20
:100C70008CEB90E09CDA62E081E077DA8FEE90E036
:100C800096DA2FEF82E597E0215080409040E1F71F
:100C900000C0000080B38330E9F3819912C1CFEF27
:100CA000D2E527E0C150D0402040E1F700C000006D
:100CB00095DA80916A008093240180911D018093D0
:100CC0001E01F6C018DC62E081E04FDA8CEC90E0A7
:100CD0006EDA80B38330E9F381990FC080912C01E3
:100CE000873119F410922C0103C08F5F80932C017F
:100CF00080912C018093170104C080916300809340
:100D00001E018FEF92E5C7E081509040C040E1F7AF
:100D100000C0000090911E0180911D01981791F272
:100D20005DDA90911E018091630098132EC0E3DB81
:100D300062E084E01ADA8CEC90E039DA80B3833038
:100D4000E9F381990FC080912B018B3319F4109234
:100D50002B0103C08F5F80932B0180912B01809327
:100D6000150104C08091620080931E01DFEF22E52F
:100D700087E0D15020408040E1F700C00000909112
:100D80001E0180916300981791F228DA90911E015C
:100D900080916200981343C09091240180916A0071
:100DA00098133DC0A8DB62E087E0DFD98CEC90E0CF
:100DB000FED980B38330E9F3819918C08091230173
:100DC0008093240180916D0080932601809117010A
:100DD000809318018091150180931601FFD961E07D
:100DE00084E0C3D987EF90E0E2D904C0809161002C
:100DF00080931E019FEFC2E5D7E09150C040D040E4
:100E0000E1F700C0000090911E01809162009813EC
:100E100006C09091240180916A00981719F2DED9DA
:100E200090911E018091610098133BC09091240124
:100E300080916A00981335C05EDB62E08EE095D940
:100E40008CEC90E0B4D980B38330E9F3819910C081
:100E500080912301809324018091250180932601B4
:100E6000BDD961E084E081D983E091E0A0D904C0DC
:100E700080911D0180931E012FEF82E597E02150A4
:100E800080409040E1F700C0000090911E018091E9
:100E90006100981306C09091240180916A00981710
:100EA00059F29CD99091240180916A00981309C04D
:100EB00090911E0180911D01981709F403CF30CF46
:100EC0005CDBCFEFD2E527E0C150D0402040E1F716
:100ED00000C0000083D91ACC991B79E004C0991F87
:100EE000961708F0961B881F7A95C9F78095089584
:040EF000F894FFCFA4
:100EF40001030201030201030201040302010130A0
:100F0400303030303030300C3031323334353637E5
:100F140038393A0053657454696D6500205365741B
:100F2400414C310020536574414C320057414B45CC
:100F340020555000507265737320746F2073746F62
:100F440070004852204D4E2053454300436C696362
:100F54006B20746F20757064617465005E5E00417F
:100F64006C61726D203100416C61726D20312053CF
:100F7400657400416C61726D2031204F66660041DA
:100F84006C61726D203200416C61726D20322053AD
:100F9400657400416C61726D2032204F66660000FA
:00000001FF
